{"abi":[{"type":"constructor","inputs":[],"stateMutability":"nonpayable"},{"type":"function","name":"acceptances","inputs":[{"name":"account","type":"address","internalType":"address"},{"name":"acceptanceMessageHash","type":"bytes32","internalType":"bytes32"}],"outputs":[{"name":"accepted","type":"bool","internalType":"bool"}],"stateMutability":"view"},{"type":"function","name":"canAddressProceed","inputs":[{"name":"sender","type":"address","internalType":"address"}],"outputs":[{"name":"accepted","type":"bool","internalType":"bool"}],"stateMutability":"view"},{"type":"function","name":"canProceed","inputs":[],"outputs":[{"name":"accepted","type":"bool","internalType":"bool"}],"stateMutability":"view"},{"type":"function","name":"getTextHash","inputs":[{"name":"version","type":"uint16","internalType":"uint16"}],"outputs":[{"name":"hash","type":"bytes32","internalType":"bytes32"}],"stateMutability":"view"},{"type":"function","name":"hasAcceptedHash","inputs":[{"name":"account","type":"address","internalType":"address"},{"name":"acceptanceMessageHash","type":"bytes32","internalType":"bytes32"}],"outputs":[{"name":"accepted","type":"bool","internalType":"bool"}],"stateMutability":"view"},{"type":"function","name":"hasAcceptedVersion","inputs":[{"name":"account","type":"address","internalType":"address"},{"name":"version","type":"uint16","internalType":"uint16"}],"outputs":[{"name":"accepted","type":"bool","internalType":"bool"}],"stateMutability":"view"},{"type":"function","name":"latestAcceptanceMessageHash","inputs":[],"outputs":[{"name":"","type":"bytes32","internalType":"bytes32"}],"stateMutability":"view"},{"type":"function","name":"latestTermsOfServiceVersion","inputs":[],"outputs":[{"name":"","type":"uint16","internalType":"uint16"}],"stateMutability":"view"},{"type":"function","name":"owner","inputs":[],"outputs":[{"name":"","type":"address","internalType":"address"}],"stateMutability":"view"},{"type":"function","name":"renounceOwnership","inputs":[],"outputs":[],"stateMutability":"nonpayable"},{"type":"function","name":"signTermsOfServiceBehalf","inputs":[{"name":"signer","type":"address","internalType":"address"},{"name":"hash","type":"bytes32","internalType":"bytes32"},{"name":"signature","type":"bytes","internalType":"bytes"},{"name":"metadata","type":"bytes","internalType":"bytes"}],"outputs":[],"stateMutability":"nonpayable"},{"type":"function","name":"signTermsOfServiceOwn","inputs":[{"name":"hash","type":"bytes32","internalType":"bytes32"},{"name":"signature","type":"bytes","internalType":"bytes"},{"name":"metadata","type":"bytes","internalType":"bytes"}],"outputs":[],"stateMutability":"nonpayable"},{"type":"function","name":"transferOwnership","inputs":[{"name":"newOwner","type":"address","internalType":"address"}],"outputs":[],"stateMutability":"nonpayable"},{"type":"function","name":"updateTermsOfService","inputs":[{"name":"version","type":"uint16","internalType":"uint16"},{"name":"acceptanceMessageHash","type":"bytes32","internalType":"bytes32"},{"name":"acceptanceMessage","type":"string","internalType":"string"}],"outputs":[],"stateMutability":"nonpayable"},{"type":"function","name":"versions","inputs":[{"name":"version","type":"uint16","internalType":"uint16"}],"outputs":[{"name":"acceptanceMessageHash","type":"bytes32","internalType":"bytes32"}],"stateMutability":"view"},{"type":"event","name":"OwnershipTransferred","inputs":[{"name":"previousOwner","type":"address","indexed":true,"internalType":"address"},{"name":"newOwner","type":"address","indexed":true,"internalType":"address"}],"anonymous":false},{"type":"event","name":"Signed","inputs":[{"name":"signer","type":"address","indexed":false,"internalType":"address"},{"name":"version","type":"uint16","indexed":false,"internalType":"uint16"},{"name":"hash","type":"bytes32","indexed":false,"internalType":"bytes32"},{"name":"metadata","type":"bytes","indexed":false,"internalType":"bytes"}],"anonymous":false},{"type":"event","name":"UpdateTermsOfService","inputs":[{"name":"version","type":"uint16","indexed":false,"internalType":"uint16"},{"name":"acceptanceMessageHash","type":"bytes32","indexed":false,"internalType":"bytes32"},{"name":"acceptanceMessage","type":"string","indexed":false,"internalType":"string"}],"anonymous":false}],"bytecode":{"object":"0x608060405234801561001057600080fd5b5061001a3361001f565b61006f565b600080546001600160a01b038381166001600160a01b0319831681178455604051919092169283917f8be0079c531659141344cd1fd0a4f28419497f9722a3daafe3b4186f6b6457e09190a35050565b610e578061007e6000396000f3fe608060405234801561001057600080fd5b50600436106100f55760003560e01c80638da5cb5b11610097578063be0fc8a611610066578063be0fc8a61461020e578063c4846df014610221578063f2fde38b14610245578063f8f584b81461025857600080fd5b80638da5cb5b1461019b578063931f45f8146101b65780639a5f773e146101e4578063b8ad591b146101ed57600080fd5b80635f145fb7116100d35780635f145fb71461014a5780635fc7e1b61461015d57806361b351631461018b578063715018a61461019357600080fd5b80633f3dea15146100fa57806349e289341461010f5780635053b56314610122575b600080fd5b61010d610108366004610a98565b61026b565b005b61010d61011d366004610b29565b610280565b610135610130366004610b9a565b6103d3565b60405190151581526020015b60405180910390f35b61010d610158366004610bbc565b610437565b61017d61016b366004610c46565b60026020526000908152604090205481565b604051908152602001610141565b610135610629565b61010d610639565b6000546040516001600160a01b039091168152602001610141565b6101356101c4366004610c61565b600160209081526000928352604080842090915290825290205460ff1681565b61017d60035481565b6004546101fb9061ffff1681565b60405161ffff9091168152602001610141565b61013561021c366004610c8b565b61064d565b61017d61022f366004610c46565b61ffff1660009081526002602052604090205490565b61010d610253366004610b9a565b6106b2565b610135610266366004610c61565b61072b565b610279338686868686610437565b5050505050565b610288610756565b60045461029a9061ffff166001610cbe565b61ffff168461ffff16146103045760405162461bcd60e51b815260206004820152602660248201527f56657273696f6e73206d757374206265207570646174656420696e6372656d656044820152656e74616c6c7960d01b60648201526084015b60405180910390fd5b60035483036103655760405162461bcd60e51b815260206004820152602760248201527f53657474696e67207468652073616d65207465726d73206f66207365727669636044820152666520747769636560c81b60648201526084016102fb565b60038390556004805461ffff191661ffff861690811790915560009081526002602052604090819020849055517f7a8fff7d237fbe760ae4f579cb79024a674b767ef612e8b5876965620604bd72906103c5908690869086908690610d17565b60405180910390a150505050565b6003546000906104255760405162461bcd60e51b815260206004820181905260248201527f5465726d73206f662073657276696365206e6f7420696e697469616c6973656460448201526064016102fb565b6104318260035461072b565b92915050565b60035485146104ae5760405162461bcd60e51b815260206004820152603760248201527f43616e6e6f74207369676e206f6c646572206f7220756e6b6e6f776e2076657260448201527f73696f6e73207465726d73206f6620736572766963657300000000000000000060648201526084016102fb565b6104fa8585858080601f016020809104026020016040519081016040528093929190818152602001838380828437600092019190915250506001600160a01b038b1693929150506107b0565b61053f5760405162461bcd60e51b815260206004820152601660248201527514da59db985d1d5c99481a5cc81b9bdd081d985b1a5960521b60448201526064016102fb565b6001600160a01b0386166000908152600160209081526040808320600354845290915290205460ff16156105a65760405162461bcd60e51b815260206004820152600e60248201526d105b1c9958591e481cda59db995960921b60448201526064016102fb565b6001600160a01b0386166000908152600160208181526040808420600380548652925292839020805460ff1916909217909155600454905491517f32c70fa5bb7bfd2dd4d863783422e6009fbcd3127a0e36bb0627e67ae136f9a792610619928a9261ffff909116919087908790610d3b565b60405180910390a1505050505050565b6000610634336103d3565b905090565b610641610756565b61064b6000610811565b565b61ffff8116600090815260026020526040812054806106a05760405162461bcd60e51b815260206004820152600f60248201526e27379039bab1b4103b32b939b4b7b760891b60448201526064016102fb565b6106aa848261072b565b949350505050565b6106ba610756565b6001600160a01b03811661071f5760405162461bcd60e51b815260206004820152602660248201527f4f776e61626c653a206e6577206f776e657220697320746865207a65726f206160448201526564647265737360d01b60648201526084016102fb565b61072881610811565b50565b6001600160a01b03919091166000908152600160209081526040808320938352929052205460ff1690565b6000546001600160a01b0316331461064b5760405162461bcd60e51b815260206004820181905260248201527f4f776e61626c653a2063616c6c6572206973206e6f7420746865206f776e657260448201526064016102fb565b60008060006107bf8585610861565b909250905060008160048111156107d8576107d8610d78565b1480156107f65750856001600160a01b0316826001600160a01b0316145b8061080757506108078686866108a6565b9695505050505050565b600080546001600160a01b038381166001600160a01b0319831681178455604051919092169283917f8be0079c531659141344cd1fd0a4f28419497f9722a3daafe3b4186f6b6457e09190a35050565b60008082516041036108975760208301516040840151606085015160001a61088b87828585610992565b9450945050505061089f565b506000905060025b9250929050565b6000806000856001600160a01b0316631626ba7e60e01b86866040516024016108d0929190610db2565b60408051601f198184030181529181526020820180516001600160e01b03166001600160e01b031990941693909317909252905161090e9190610dec565b600060405180830381855afa9150503d8060008114610949576040519150601f19603f3d011682016040523d82523d6000602084013e61094e565b606091505b509150915081801561096257506020815110155b801561080757508051630b135d3f60e11b906109879083016020908101908401610e08565b149695505050505050565b6000807f7fffffffffffffffffffffffffffffff5d576e7357a4501ddfe92f46681b20a08311156109c95750600090506003610a4d565b6040805160008082526020820180845289905260ff881692820192909252606081018690526080810185905260019060a0016020604051602081039080840390855afa158015610a1d573d6000803e3d6000fd5b5050604051601f1901519150506001600160a01b038116610a4657600060019250925050610a4d565b9150600090505b94509492505050565b60008083601f840112610a6857600080fd5b50813567ffffffffffffffff811115610a8057600080fd5b60208301915083602082850101111561089f57600080fd5b600080600080600060608688031215610ab057600080fd5b85359450602086013567ffffffffffffffff80821115610acf57600080fd5b610adb89838a01610a56565b90965094506040880135915080821115610af457600080fd5b50610b0188828901610a56565b969995985093965092949392505050565b803561ffff81168114610b2457600080fd5b919050565b60008060008060608587031215610b3f57600080fd5b610b4885610b12565b935060208501359250604085013567ffffffffffffffff811115610b6b57600080fd5b610b7787828801610a56565b95989497509550505050565b80356001600160a01b0381168114610b2457600080fd5b600060208284031215610bac57600080fd5b610bb582610b83565b9392505050565b60008060008060008060808789031215610bd557600080fd5b610bde87610b83565b955060208701359450604087013567ffffffffffffffff80821115610c0257600080fd5b610c0e8a838b01610a56565b90965094506060890135915080821115610c2757600080fd5b50610c3489828a01610a56565b979a9699509497509295939492505050565b600060208284031215610c5857600080fd5b610bb582610b12565b60008060408385031215610c7457600080fd5b610c7d83610b83565b946020939093013593505050565b60008060408385031215610c9e57600080fd5b610ca783610b83565b9150610cb560208401610b12565b90509250929050565b61ffff818116838216019080821115610ce757634e487b7160e01b600052601160045260246000fd5b5092915050565b81835281816020850137506000828201602090810191909152601f909101601f19169091010190565b61ffff85168152836020820152606060408201526000610807606083018486610cee565b60018060a01b038616815261ffff85166020820152836040820152608060608201526000610d6d608083018486610cee565b979650505050505050565b634e487b7160e01b600052602160045260246000fd5b60005b83811015610da9578181015183820152602001610d91565b50506000910152565b8281526040602082015260008251806040840152610dd7816060850160208701610d8e565b601f01601f1916919091016060019392505050565b60008251610dfe818460208701610d8e565b9190910192915050565b600060208284031215610e1a57600080fd5b505191905056fea26469706673582212201e9b393b95389ff694bae8b1927d520dc5b9ff0f93246fd937b771af97a0554464736f6c63430008170033","linkReferences":{}},"methodIdentifiers":{"acceptances(address,bytes32)":"931f45f8","canAddressProceed(address)":"5053b563","canProceed()":"61b35163","getTextHash(uint16)":"c4846df0","hasAcceptedHash(address,bytes32)":"f8f584b8","hasAcceptedVersion(address,uint16)":"be0fc8a6","latestAcceptanceMessageHash()":"9a5f773e","latestTermsOfServiceVersion()":"b8ad591b","owner()":"8da5cb5b","renounceOwnership()":"715018a6","signTermsOfServiceBehalf(address,bytes32,bytes,bytes)":"5f145fb7","signTermsOfServiceOwn(bytes32,bytes,bytes)":"3f3dea15","transferOwnership(address)":"f2fde38b","updateTermsOfService(uint16,bytes32,string)":"49e28934","versions(uint16)":"5fc7e1b6"},"id":8}